:100000000000012001050000FD040000FD040000C7
:10001000FD040000FD040000FD04000000000000DD
:10002000000000000000000000000000C9270000E0
:10003000FD040000000000000D2800001D29000044
:100040004FF0FF0C1CEAD0521EBF1CEAD15392EABB
:100050000C0F93EA0C0F6FD01A4480EA010C400297
:1000600018BF5FEA41211ED04FF0006343EA5010F1
:1000700043EA5111A0FB01310CF00040B1F5000F33
:100080003EBF490041EAD3715B0040EA010062F1E2
:100090007F02FD2A1DD8B3F1004F40EBC25008BFCC
:1000A00020F00100704790F0000F0CF0004C08BFEA
:1000B00049024CEA502040EA51207F3AC2BFD2F1B7
:1000C000FF0340EAC250704740F400004FF00003C5
:1000D000013A5DDC12F1190FDCBF00F000407047FF
:1000E000C2F10002410021FA02F1C2F1200200FA3D
:1000F00002FC5FEA310040F1000053EA4C0308BF04
:1001000020EADC70704792F0000F00F0004C02BF54
:10011000400010F4000F013AF9D040EA0C0093F0CF
:10012000000F01F0004C02BF490011F4000F013B29
:10013000F9D041EA0C018FE70CEAD15392EA0C0F97
:1001400018BF93EA0C0F0AD030F0004C18BF31F002
:10015000004CD8D180EA010000F00040704790F0D8
:10016000000F17BF90F0004F084691F0000F91F07C
:10017000004F14D092EA0C0F01D142020FD193EA42
:100180000C0F03D14B0218BF084608D180EA0100CA
:1001900000F0004040F0FE4040F40000704740F0A6
:1001A000FE4040F44000704780F0004002E000BF95
:1001B00081F0004142001FBF5FEA410392EA030F52
:1001C0007FEA226C7FEA236C6AD04FEA1262D2EB9C
:1001D0001363C1BFD218414048404140B8BF5B42A1
:1001E000192B88BF704710F0004F40F4000020F03A
:1001F0007F4018BF404211F0004F41F4000121F050
:100200007F4118BF494292EA030F3FD0A2F1010299
:1002100041FA03FC10EB0C00C3F1200301FA03F1D7
:1002200000F0004302D5494260EB4000B0F5000FFA
:1002300013D3B0F1807F06D340084FEA310102F1B9
:100240000102FE2A51D2B1F1004F40EBC25008BF6B
:1002500020F0010040EA03007047490040EB000035
:10026000013A28BFB0F5000FEDD2B0FA80FCACF136
:10027000080CB2EB0C0200FA0CF0AABF00EBC25063
:1002800052421843BCBFD0401843704792F0000F51
:1002900081F4000106BF80F400000132013BB5E7A4
:1002A0004FEA41037FEA226C18BF7FEA236C21D01A
:1002B00092EA030F04D092F0000F08BF084670477F
:1002C00090EA010F1CBF0020704712F07F4F04D14D
:1002D000400028BF40F00040704712F100723CBF60
:1002E00000F50000704700F0004343F0FE4040F48A
:1002F000000070477FEA226216BF08467FEA236348
:100300000146420206BF5FEA412390EA010F40F432
:10031000800070474FF0000304E000BF10F000437E
:1003200048BF40425FEA000C08BF704743F0964365
:1003300001464FF000001CE050EA010208BF704780
:100340004FF000030AE000BF50EA010208BF704707
:1003500011F0004302D5404261EB41015FEA010C1C
:1003600002BF84460146002043F0B64308BFA3F114
:100370008053A3F50003BCFA8CF2083AA3EBC253F6
:1003800010DB01FA02FC634400FA02FCC2F1200215
:10039000BCF1004F20FA02F243EB020008BF20F04C
:1003A0000100704702F1200201FA02FCC2F12002B2
:1003B00050EA4C0021FA02F243EB020008BF20EAA7
:1003C000DC7070474FF0FF3C06E000BF4FF0010CBF
:1003D00002E000BF4FF0010C4DF804CD4FEA40029F
:1003E0004FEA41037FEA226C18BF7FEA236C11D0E9
:1003F00001B052EA530C18BF90EA010F58BFB2EB9C
:10040000030088BFC81738BF6FEAE17018BF40F01B
:10041000010070477FEA226C02D15FEA402C05D1CF
:100420007FEA236CE4D15FEA412CE1D05DF8040B54
:10043000704700BF844608466146FFE70FB5FFF7E7
:10044000C9FF002848BF10F1000F0FBD4DF808ED9F
:10045000FFF7F4FF0CBF012000205DF808FB00BF90
:100460004DF808EDFFF7EAFF34BF012000205DF8EA
:1004700008FB00BF4DF808EDFFF7E0FF94BF012037
:1004800000205DF808FB00BF4DF808EDFFF7D2FF34
:1004900094BF012000205DF808FB00BF4DF808ED77
:1004A000FFF7C8FF34BF012000205DF808FB00BF44
:1004B0004FEA4002B2F1FE4F0FD34FF09E03B3EB71
:1004C00012620DD94FEA002343F0004310F0004FB1
:1004D00023FA02F018BF404270474FF00000704707
:1004E00012F1610F01D1420205D110F0004008BFA6
:1004F0006FF0004070474FF000007047FEE700BF0C
:1005000008B50E4A0E4B934208D2013AD21A22F095
:10051000030218460B49043203F014FC0A4A0B4B41
:10052000934208D2013AD21A22F00302002118465F
:10053000043203F0FDFB00F00BF8FEE7540000204E
:1005400000000020D44C000094A3002054000020A0
:1005500000B54FF4E13083B000F0CEFA454800F02A
:10056000F1FA00222821102001F012FC424C002256
:1005700020600121082001F00BFC404A2368106034
:10058000FBB1A8B104243E48002301904FF400724F
:100590003C493D48009400F009FE01281AD04FF074
:1005A000A00383F31188BFF36F8FBFF34F8FFEE774
:1005B0004FF0A00383F31188BFF36F8FBFF34F8F0A
:1005C000FEE74FF0A00383F31188BFF36F8FBFF3F3
:1005D0004F8FFEE700244FF0020C4FF48072234649
:1005E000CDE900C429492A4800F0E0FD012808D0DF
:1005F0004FF0A00383F31188BFF36F8FBFF34F8FCA
:10060000FEE74FF0050C23464FF480722149224843
:100610000194CDF800C000F0C9FD012808D04FF0CA
:10062000A00383F31188BFF36F8FBFF34F8FFEE7F3
:100630004FF0030C23464FF4807218491848019478
:10064000CDF800C000F0B2FD012808D04FF0A003A3
:1006500083F31188BFF36F8FBFF34F8FFEE700F076
:1006600017FB104800F06EFA00F042FF0E4800F051
:1006700069FAFEE7304600005C00002058000020C8
:100680005400002060460000D106000068460000CB
:10069000A90800006C4600005109000070460000E7
:1006A000FD090000744600009C460000704700BF32
:1006B00008B5024800F054FAFEE700BFB846000053
:1006C00008B5024800F03EFAFEE700BFE046000031
:1006D0002DE9F04F012091B001F04CFC634B186004
:1006E000002800F0B98030220021614803F020FB8F
:1006F00003235F4ADFF87CB182F82C3000F05EFF04
:10070000DFF874A15D4D03900DF13409142103A8A5
:1007100000F056FE3022002104A803F009FB5849DE
:10072000DBF80000FFF746FD56490446CBF8000011
:10073000FFF786FC02F050FB4FF07C51FFF780FC86
:100740005149804600902046FFF77AFC02F012FBE8
:100750004E49FFF775FC4E49074601902046FFF7CA
:100760006FFC02F039FB4B4906464046FFF768FC38
:100770004949FFF765FC494904463046FFF760FCEC
:1007800001462046FFF716FD0446424938460B94C1
:10079000FFF756FC4049FFF753FC0021FFF70AFD25
:1007A0003F4E0C90314620460DF12C08FFF776FEA7
:1007B000A8B120462946FFF7FBFC31460446FFF767
:1007C0006DFE0028F5D1C8F80040C84519D058F88A
:1007D000044F31462046FFF761FE0028E9D120464C
:1007E0003049FFF73DFE0028EFD02E4F2046294626
:1007F000FFF7E0FC39460446FFF732FE0028F5D14A
:10080000E1E700F0DBFE194B06461868184B05219E
:1008100093F82C4001F08CFC012817D1009B8DF837
:100820003C400893019B124C09930E9604AE0FCEE8
:100830000FC40FCE0FC496E80F0084E80F0000230A
:100840000A4A194610681A4601F0D4FADAF800305C
:100850000133CAF8003059E74FF0A00383F3118841
:10086000BFF36F8FBFF34F8FFEE700BF680000201C
:100870006C00002060000020640000200000B443F1
:10088000CDCC4C3ECDCCCC3D295C8F3D9A99993E48
:10089000CDCC4C3D0AD7A33CE12E65429A99193E36
:1008A00000003443000034C380B500278AB0254ED1
:1008B000DFF89480254D0DF125044FF47A7000F097
:1008C000E1FD0A21306801F033FC012835D14AF2FC
:1008D000C35E40F62E1C0022B8F800100DF1FF3365
:1008E000481CA8F80000ADF80210A86A296A019017
:1008F0000391E869296902900591686AA9690490E1
:100900000791686995F82C108DF821700690ADF864
:1009100024708DF82010ADF800E0ADF822C013F877
:10092000011FA34282EA0102F9D10023ADF824207D
:1009300019461A46306801F05DFA2821684600F031
:1009400045F9BAE7680000209C0000206C000020F8
:100950002DE9F04383B000F031FE4FF00009DFF8DD
:100960008080204C204F214E0190642101A800F08E
:1009700027FDD8F800502378A94522D003F0FE03C4
:100980002370386838B100F0BDFF1F2823781FD9C5
:1009900003F0F703237000F0A7F933780133DBB2DB
:1009A000092B02D8A9463370DFE70023337000F02B
:1009B00005FE2B46014622780D4800F0D1F8A946E5
:1009C000D3E743F001030B48237000F0BBF8D8E7EE
:1009D000014643F008030848237000F0C1F8DAE745
:1009E000640000209F000020540000209E00002092
:1009F0007C470000244700004C47000000B5354804
:100A000083B000F09FF8344C344D4FF47A710DF1FF
:100A1000070000F013F90028F7D09DF807203048B0
:100A2000114600F09DF89DF80710A1F14403102B2A
:100A30000AD8DFE803F03C0909090909090909098D
:100A40002909090923180D00264800F089F8DCE778
:100A500095F82C6000F0B2FD002302463146224892
:100A600000F07EF8D1E70A21206801F061FB01283F
:100A7000CBD10023206885F82C3010E01B4800F013
:100A800061F800F07DFDFEE70A21206801F050FBCF
:100A90000128BAD103220023206885F82C201A46A9
:100AA000194601F0A7F9124800F04CF8ADE70A2109
:100AB000206801F03DFB0128A7D1002385F82C0018
:100AC0001A461946206801F095F90A4800F03AF8EC
:100AD0009BE700BFA4470000680000206C000020D6
:100AE000D447000064480000244800004C4800003F
:100AF000F04700000848000038B503460E494FEAA9
:100B0000031CB1FBFCFE0CFB1E1103EBC103DB005D
:100B1000B3FBFCF30020702540F20134074A106358
:100B2000C2F824E001209362D562146301F022FA36
:100B3000034B186038BD00BF0024F40000C0004023
:100B4000A0000020017841B1044A93699B06FCD4BF
:100B5000116010F8011F0029F7D1704700C0004054
:100B60000FB410B5C2B044AB53F8042B4FF48071EE
:100B700002A8019303F0CEF8124B1868E8B14FF0C9
:100B8000FF3101F0D5FA0F4B9DF80810186851B1EC
:100B90000D4A0DF1080C93699B06FCD411601CF8FA
:100BA000011F0029F7D118B10B460A4601F022F9BE
:100BB00042B0BDE8104004B070479DF8081000290D
:100BC000E6D1F5E7A000002000C0004010B5194AAA
:100BD0000346D2F800E00C4682B0BEF1000F24D0EC
:100BE00001904FF0FF31704601F0A2FA114A019BCB
:100BF000D2F800E06CB1104A591EC3F1010C9369A0
:100C00009B06FCD411F8010F0CEB01039C42106011
:100C1000F5D8BEF1000F0AD0002370461A461946D7
:100C200002B0BDE8104001F0E5B80029E3D102B000
:100C300010BD00BFA000002000C0004070B50C46F1
:100C4000064600F0BBFC094D044405E0AB69DB0639
:100C500008D5012000F016FC00F0B0FCA042F5D34E
:100C6000002070BD2B680120337070BD00C00040B3
:100C700008B50648FFF766FF4FF0A00383F311881D
:100C8000BFF36F8FBFF34F8FFEE700BF7C480000BC
:100C9000002300B5114A85B000924FF4FA611A465C
:100CA0000F4801F035FD0F4A106070B1039000F05D
:100CB00085FC4FF0000C0246012163460398CDF8F5
:100CC00000C001F055FD05B000BD4FF0A00383F357
:100CD0001188BFF36F8FBFF34F8FFEE7710C0000D9
:100CE000A8480000A400002010B5074B82B01C6883
:100CF00000F064FC0023024602212046009301F02C
:100D000037FD02B010BD00BFA40000202DE9F8435C
:100D10002A4A2B4C2B4B2C4D2668126804461B6824
:100D20002868174604309846894601F021FB40B9EF
:100D300001222B682549DB6A9A400B6823EA0203EB
:100D40000B60631C16D02B6834195C600BD22968C9
:100D50003846043101F0F0FA1D4B1A68A24200D95E
:100D60001C60BDE8F88329684046BDE8F8430431BB
:100D700001F0E2BAB9F1000F0CD12B68721E5A6073
:100D8000002EF0D129683846043101F0D5FA104B15
:100D90001B68E6E70F4B29685A681C688A602E6852
:100DA0000134286829681C602D6894680430043177
:100DB000F460606091606B61BDE8F8831801002009
:100DC000CC00002014010020E4010020C800002015
:100DD000B0000020D4000020F8B50F4D2B68CBB137
:100DE0000E4F0F4E01F064FDFB68DC68201D01F022
:100DF000BFFA3368013B33602B68013B2B6001F085
:100E000079FD206B01F020FF204601F01DFF2B68CB
:100E1000002BE7D1F8BD00BFE8000020EC00002067
:100E2000D00000204FF0E0264FF0805508B5074C69
:100E3000FFF7D2FF2368012B05D9C6F8045DBFF385
:100E40004F8FBFF36F8FFFF731FCF1E744010020B4
:100E5000654B1A6802F1010CC3F800C0BCF1000F29
:100E600000F09580614B2DE9F04F1A6883B09445EE
:100E700076D35F4C22681268002A00F0B1804FF0F0
:100E8000000E4FF001085B485B4E5C4D01935BE048
:100E9000D3F81490D3E902A1CAF80810D3F808A037
:100EA000C1F804A0D9F80410914204BFD968C9F868
:100EB0000410D9F800100139C9F80010D3F82890AF
:100EC000B9F1000F16D0D3E907A1CAF80810D3F87A
:100ED0001CA0C1F804A0D9F80410B9424FF00007D3
:100EE00004BF196AC9F80410D9F800109F620139CB
:100EF000C9F80010D96AD5F8009001EB810700EB22
:100F0000870A08FA01F141EA0901DAF80490296038
:100F1000C3F8089050F82710D9F808B00131C3F889
:100F20000CB0CBF80420C9F808203268C3F814A02C
:100F300040F827102768D96AD26A3B68914288BF77
:100F40004EF0010E002B40D02368DB68DB68596847
:100F50001A1D8C4503F118079AD2019B196003E012
:100F60004FF0000E2348244E3368254ADB6A12688E
:100F700003EB830350F82300012898BF002A14BF15
:100F80000120002040EA0E0003B0BDE8F08F184BAE
:100F90001A68126842B14FF0A00383F31188BFF3BF
:100FA0006F8FBFF34F8FFEE7164A186811681960FC
:100FB000154910600A6801320A601A6812684AB955
:100FC0004FF0FF32094B1A604DE7019B4FF0FF32A3
:100FD0001A60C9E71A68054BD26812681A6042E7BE
:100FE00096460448044EF1E7CC000020B0000020F3
:100FF0001801002044010020E4010020C800002066
:10100000BC00002014010020B80000202DE9F04FA2
:101010005C4C83B02368013B2360D4F800E0BEF150
:10102000000F40F09F80584B1B68002B00F09A8007
:1010300056480368002B00F0A1800125544BDFF8CF
:1010400054C15549554E0193C368DB681A6AD3F8F9
:101050001C809F6AC8F80820D3F81C80C2F804805E
:101060007A6803F11808424504BF1A6A7A603A6840
:10107000C3F828E0013A3A60DF68D3F808805A697B
:10108000C8F80870D3F80880DCF80090C7F804802E
:10109000576803F10408474504BFDF6857601768C5
:1010A000013F1760DA6A02EB820701EB870A05FA53
:1010B00002F242EA0902DAF80490CCF80020C3F800
:1010C000089051F82720D9F808B00132C3F80CB0C5
:1010D000CBF80480C9F80880C3F814A041F8272091
:1010E0003268DF6AD26A0368974284BF019A15604A
:1010F000002BA9D12A4B1A681268002A39D01A6825
:10110000284BD26812681A60274E3568A5B10127AE
:10111000DDF8048006E0FFF79BFE08B1C8F8007018
:10112000013D08D02368002BF5D03368013D03F161
:1011300001033360F6D13560019B1B6893B14FF01A
:10114000E0234FF0805215490968C3F8042DBFF31E
:101150004F8FBFF36F8F012401F0CCFB204603B00B
:10116000BDE8F08F002401F0C5FB204603B0BDE8C8
:10117000F08F4FF0FF320B4B1A60C5E7044B019321
:10118000C2E700BFA8000020D0000020000100201E
:10119000BC000020C800002044010020E401002021
:1011A00018010020B0000020C00000202DE9F04709
:1011B00095008146284616460F469A4601F066FC81
:1011C000002800F0AE8080465C2001F05FFC044601
:1011D000002800F0A3805C22002102F0A9FDA521D7
:1011E00040462A46C4F8308002F0A2FDD4F830C050
:1011F00077B17B1E07F10F0004F1330113F8012FC3
:1012000001F8012F0AB18342F8D1002384F843305A
:10121000089B072B08D94FF0A00383F31188BFF375
:101220006F8FBFF34F8FFEE7089B043D0CEB050764
:10123000251DE362E364284601F07AF804F1180002
:1012400001F076F8089B27F00707C3F1080338463A
:1012500052464946A3612461646201F019FB3F1ABA
:10126000B6EBA70F206050D9099B03B11C6001F0B9
:101270001FFB454A454E1368013313603368002B4A
:1012800053D0DFF80C81E36AD8F8002022B9326825
:10129000D26A9A4298BF34603E4F01213E4A03EB26
:1012A000830099401368DFF8F4C00133636413606E
:1012B00007EB80035A68A260D2F808E0C4F80CE09B
:1012C000CEF8045095606361DCF800300B43CCF835
:1012D000003057F82030013347F8203001F00AFB86
:1012E000D8F8003073B13268E36AD26A9A4209D200
:1012F0004FF0E0234FF08052C3F8042DBFF34F8F1F
:10130000BFF36F8F0120BDE8F0874FF0A00383F398
:101310001188BFF36F8FBFF34F8FFEE7404601F098
:1013200093FC4FF0FF30BDE8F08734601368012B69
:1013300004D0E36A174FDFF85880AEE7154FB84680
:10134000404600F0E9FF164B08F114084345F7D179
:10135000DFF85080144800F0DFFF404600F0DCFF6B
:10136000124800F0D9FF124800F0D6FF114800F0F3
:10137000D3FF0D4B104A1360104BC3F80080E36A93
:10138000DFF80C8089E700BFD0000020E4010020D6
:10139000C400002044010020B4000020C800002048
:1013A000E40100201C010020300100200001002089
:1013B000EC000020D40000201801002014010020BF
:1013C000E0B191B12D4A1368013313602C4BD3F86F
:1013D00000C01368012B1AD04FF0A00383F31188CB
:1013E000BFF36F8FBFF34F8FFEE74FF0A00383F380
:1013F0001188BFF36F8FBFF34F8FFEE74FF0A0034D
:1014000083F31188BFF36F8FBFF34F8FFEE710B5E3
:10141000D0F800E01EEB01032CBF01210021E645BE
:1014200026D941B39C4526D203600021A3EB0C00D2
:10143000FFF76CFC012401F03BFA104A136843B932
:101440004FF0A00383F31188BFF36F8FBFF34F8F6B
:10145000FEE7FFF7DBFD48B94FF0E0234FF0805285
:10146000C3F8042DBFF34F8FBFF36F8F204610BD1D
:101470000029D9D1D6E700240360DCE7A8000020CA
:10148000CC00002008B550B94FF0E0234FF0805257
:10149000C3F8042DBFF34F8FBFF36F8F08BD134BFD
:1014A0001A6801321A601A68012A08D04FF0A003A6
:1014B00083F31188BFF36F8FBFF34F8FFEE70021D7
:1014C000FFF724FC01F0F4F9084B1B6843B94FF017
:1014D000A00383F31188BFF36F8FBFF34F8FFEE735
:1014E000FFF794FD0028CFD008BD00BFA800002062
:1014F00010B500241B491C4B86B0CDE90113802296
:1015000023461A4802A90094CDE903440594FFF745
:101510004DFE012809D101F0D3F801280ED0013089
:1015200003D0134B1B6806B010BD4FF0A00383F32C
:101530001188BFF36F8FBFF34F8FFEE74FF0A0030B
:1015400083F31188BFF36F8FBFF34F8F4FF0FF3CD2
:101550000849094A094BC1F800C010601C6001F03D
:10156000FFF9DEE7AC00002049444C45250E0000A1
:10157000B4480000B0000020C4000020CC000020CF
:10158000024A136801331360704700BFA8000020AF
:1015900008B501F08DF9084B1B6843B94FF0A00363
:1015A00083F31188BFF36F8FBFF34F8FFEE7BDE862
:1015B0000840FFF72BBD00BFA8000020014B1868B2
:1015C000704700BFCC000020054B1B680BB9FFF72C
:1015D0003FBC044A0020136801331360704700BF0A
:1015E000A8000020C0000020294B1B681BB101226D
:1015F000284B1A6070472749274A10B50B601068BE
:101600001168136809681B6B994204D9036B196848
:10161000B1F1A53F2FD0116810683431FFF748F8B9
:101620001D4A1E4B1B68B3FA83F3DBB2C3F11F03E1
:101630001B4803EB83039900445800EB830344B930
:101640004FF0A00383F31188BFF36F8FBFF34F8F69
:10165000FEE75C680831D4F804C001448C45C3F847
:1016600004C004BFD3F80CC0C3F804C0DCF80C30CD
:101670001360136810BD5968B1F1A53FCBD19968CB
:10168000B1F1A53FC7D1DB68B3F1A53FC3D1C8E72E
:10169000A8000020BC000020E4010020C8000020B9
:1016A0004401002060B110B50C460A4B196818318E
:1016B00000F042FE2046BDE810400121FFF726BBA6
:1016C0004FF0A00383F31188BFF36F8FBFF34F8FE9
:1016D000FEE700BFE401002058B30346DFF864C012
:1016E000002AF0B5D0F804E008BF08461146DCF83F
:1016F0000020DCF80050DCF80040C2F81CE004F1E7
:101700001806DCF800401A68DCF8007004F1180CC8
:10171000DEF8084002F101022C6218BF4FF0FF30E2
:101720006660CEF808C0BB621A60BDE8F040FFF703
:10173000EDBA4FF0A00383F31188BFF36F8FBFF3AF
:101740004F8FFEE7E4010020C368DB68002B67D001
:10175000D3E90701F0B54FF0000E9A6A8160D2F824
:1017600004C0DC6903F118004C60844504BF196AA9
:1017700051603049D1F800C01168C3F828E0013940
:101780001160BCF1000F19D02B4AD2F804C0C3F885
:101790001CC0DCF80810196248601168CCF8080019
:1017A00001319A6211602549DA6A0B68DB6A9A4254
:1017B00034D90123224A18461360F0BD5A69D3E98F
:1017C000020181609C68506803F1040E4C60704512
:1017D00008BFD9681B4E08BF5160116837680139CE
:1017E00011600122D86ADC6A174900EB800001EB26
:1017F0008005A240D5F804C03A43326051F8202059
:10180000C3F808C0541CDCF80820DA60C2F804E011
:10181000CCF808E05D6141F82040C4E70020F0BD4D
:101820004FF0A00383F31188BFF36F8FBFF34F8F87
:10183000FEE700BFA800002000010020E401002016
:10184000BC000020C800002044010020034A044BD3
:1018500012681B68C0E90023704700BFB800002071
:10186000CC00002038B3E9B170B50C4682B00E460A
:10187000019001F01DF823681D4A591CD2F800C0E0
:101880002FD01C4901980C68D0E9005EA5421BD0FE
:10189000E64519D800230124336001F02BF82046D7
:1018A00002B070BD4FF0A00383F31188BFF36F8FB8
:1018B000BFF34F8FFEE74FF0A00383F31188BFF310
:1018C0006F8FBFF34F8FFEE7ACEB0E04A342E1D95D
:1018D000A3EB0C03D1F800C0126873443360C0E975
:1018E00000C2002401F006F8204602B070BD00BF1F
:1018F000CC000020B80000200122014B1A60704784
:10190000BC00002070B1006B0378A52B17D10346F3
:101910009C4613F8012FA52AFAD0C0F101006044BB
:1019200080087047074B18680028ECD14FF0A003DF
:1019300083F31188BFF36F8FBFF34F8FFEE7002053
:10194000704700BFE4010020054B1B6833B1054B15
:101950001868B0FA80F040094000704701207047D5
:10196000C4000020A8000020E8B12D4AC36A116815
:10197000C96A8B4218D270B5816982B0002904DB34
:101980001168C96AC1F1080181612649446903EB04
:10199000830301EB83039C420ED01368DB6AC362AE
:1019A000012002B070BD70471368C06CDB6A9842BA
:1019B0002CBF0020012070470190061D043000F06C
:1019C000D7FC019B1749164ADFF85CE050B94FF08D
:1019D000010CD86A0CFA00FCDEF8000020EA0C00CA
:1019E000CEF800001268DEF80040D06A012200EB59
:1019F000800C01EB8C05D8628240686822439860B5
:101A0000CEF8002051F82C20D0F808E00132C3F8BD
:101A10000CE0CEF8046086605D6141F82C20BFE7E1
:101A2000E401002044010020C8000020A8B12C4B94
:101A30001B68834208D04FF0A00383F31188BFF3E3
:101A40006F8FBFF34F8FFEE71B6D43B1C16AC26C4E
:101A5000013B9142036500D053B1002070474FF025
:101A6000A00383F31188BFF36F8FBFF34F8FFEE79F
:101A70002DE9F04182B00190071D043000F078FCA0
:101A8000019B18B31749D3F84CC01748CCF1080292
:101A90009A610CEB8C0E0A6800EB8E0590466A6822
:101AA000C3F82CC050F82E409A6096680134DE606E
:101AB000776097605D6140F82E40012000FA0CF3DA
:101AC00043EA08030B6002B0BDE8F081012005493C
:101AD000DC6A0A68A04022EA00020A60D3E700BF7D
:101AE000E4010020C800002044010020B8B1036DCB
:101AF00063B170B5C46CC26AA14238BF21468A4244
:101B000082B001D0012B0BD002B070BD4FF0A0030A
:101B100083F31188BFF36F8FBFF34F8FFEE77047DA
:101B2000264B1B6883423FD08369C162002BA8BF4C
:101B3000C1F10801224CA8BF816102EB8203416917
:101B400004EB83039942DFD1CDE90002061D043086
:101B500000F00EFCDDE900321A4928B9012090405E
:101B60000A6822EA00020A60154C01222546D3F8D1
:101B70002CC00CEB8C0004EB800E0C6802FA0CF20B
:101B8000DEF804C02243C3F808C00A6055F82020DC
:101B9000DCF808100132D9604E60CCF80860C3F858
:101BA00014E045F82020AFE74FF0A00383F311883D
:101BB000BFF36F8FBFF34F8FFEE700BFE40100203C
:101BC00044010020C8000020034B186810B1036DC9
:101BD00001330365704700BFE401002030B51546AE
:101BE000026C0346846B83B03AB90268002A2AD09B
:101BF000002001349C6303B030BD75B94068009388
:101C000002F0A0F8009B5A68186C996802448A4256
:101C10005A60EDD31A685A60EAE7C068009302F090
:101C200091F8009BDA68196C1868521A8242DA60DF
:101C300002D29A68521ADA60022DD9D1002C18BF4C
:101C4000013C0020D5E7806801920093FFF7EEFE8B
:101C5000DDE900329A60CCE770B5054600F028FE59
:101C600095F8454064B2002C03DC10E0013CE4B27E
:101C70006CB16B6A5BB105F12400FFF765FD0028CC
:101C8000F4D0013CE4B2FFF737FE002CF1D1FF2382
:101C900085F8453000F02EFE00F00AFE95F844402D
:101CA00064B2002C03DC10E0013CE4B26CB12B699F
:101CB0005BB105F11000FFF747FD0028F4D0013CAF
:101CC000E4B2FFF719FE002CF1D1FF2385F8443070
:101CD000BDE8704000F00EBE002834D0C26B034651
:101CE00042B3006CA0FB020222BB00B585B0CDE977
:101CF0000112039300F0DCFDDDE902234FF0FF0E3B
:101D00009A63D3E90F2C02FB0CF21868A2EB0C0CBF
:101D1000019902445860604483F844E0C3E902201A
:101D200083F845E049BB1A69B2B900F0E3FD012030
:101D300005B000BD4FF0A00383F31188BFF36F8F90
:101D4000BFF34F8FFEE74FF0A00383F31188BFF37B
:101D50006F8FBFF34F8FFEE703F11000FFF7F4FC26
:101D60000028E2D04FF0E0234FF08052C3F8042D5A
:101D7000BFF34F8FBFF36F8FD7E703F110000193CD
:101D800000F0CAFA019B03F1240000F0C5FACCE789
:101D900038B1A1FB00C323B901FB00FC1CF1510FBA
:101DA00008D94FF0A00383F31188BFF36F8FBFF3FF
:101DB0004F8FFEE730B5044683B00CF15000154656
:101DC000019100F063FE034670B1019A7AB100F10F
:101DD000500119601846C3E90F4201210193FFF732
:101DE0007BFF019B83F84C50184603B030BD014681
:101DF000EFE700BFF0B585B0019200287DD0044622
:101E000000296AD0022B0BD1E26B012A08D04FF0D7
:101E1000A00383F31188BFF36F8FBFF34F8FFEE7EB
:101E20001E460F46FFF790FD00286FD000F040FDE2
:101E3000A26BE36B9A4275D3022E73D00022154633
:101E40000DE000F057FD2046FFF706FFFFF7A0FB6F
:101E500000F02EFDA16BE36B0122994262D3019841
:101E6000002876D0002A44D000F044FDFFF788FB1C
:101E700000F01EFD94F84430FF2B08BF84F8445056
:101E800094F84520FF2A08BF84F8455000F032FD41
:101E900001A902A8FFF7E6FC00285ED100F008FDCA
:101EA000A26BE36B9A42CCD100F024FD019904F1BE
:101EB0001000FFF7F7FB2046FFF7CEFEFFF768FBA9
:101EC0000028C5D14FF0E0234FF08052C3F8042D15
:101ED000BFF34F8FBFF36F8FBAE7026C002A91D028
:101EE0004FF0A00383F31188BFF36F8FBFF34F8FC1
:101EF000FEE702A8FFF7AAFCB6E74FF0A00383F3C2
:101F00001188BFF36F8FBFF34F8FFEE7019B002B4C
:101F10008CD04FF0A00383F31188BFF36F8FBFF312
:101F20004F8FFEE7324639462046FFF757FE636A79
:101F3000CBB948B14FF0E0234FF08052C3F8042DE5
:101F4000BFF34F8FBFF36F8F00F0D4FC012005B0BB
:101F5000F0BD00F0CFFC0020F9E72046FFF77CFE43
:101F6000FFF716FBF7E704F12400FFF7EDFB00286D
:101F7000EAD0DFE738B50546502000F087FD04467B
:101F800088B1012100232060C0E90F13FFF7A4FEF0
:101F9000002320461A46194684F84C50A36023605B
:101FA000E360FFF727FF204638BD00BF70B584B05F
:101FB0000192002800F089800446002947D00E468F
:101FC000FFF7C2FC00284ED000F072FCA36B002B80
:101FD00040F08480019A002A34D002A80093FFF7D1
:101FE00035FC009D00F086FCFFF7CAFA00F060FCAB
:101FF00094F84430FF2B04BF2B4684F8443094F807
:102000004530FF2B04BF2B4684F8453000F072FCAE
:1020100001A902A8FFF726FC002830D100F048FCF7
:10202000A36B002B38D000F065FC2046FFF714FEB0
:10203000FFF7AEFA00F03CFCA36B002B4ED1019BE6
:10204000002BCFD100F056FC002004B070BD036C13
:10205000002BB4D04FF0A00383F31188BFF36F8F30
:10206000BFF34F8FFEE7019B002BADD04FF0A003D5
:1020700083F31188BFF36F8FBFF34F8FFEE72046C6
:10208000FFF7EAFDFFF784FA00F012FCA36B002BC8
:10209000D8D000F02FFCCDE700F02CFC019904F122
:1020A0002400FFF7FFFA2046FFF7D6FDFFF770FA8E
:1020B0000028BFD14FF0E0234FF08052C3F8042D29
:1020C000BFF34F8FBFF36F8FB4E74FF0A00383F3DD
:1020D0001188BFF36F8FBFF34F8FFEE7226C6AB199
:1020E000E168A06811448142E16028BF2168304660
:1020F00028BFE160009301F025FE009B2269013BAF
:10210000A3631AB900F0F6FB01209EE704F110006A
:10211000FFF71AFB0028F5D04FF0E0234FF0805274
:10212000C3F8042DBFF34F8FBFF36F8FEAE700BFF3
:1021300030B585B00191002852D0036C044643B1FC
:102140004FF0A00383F31188BFF36F8FBFF34F8F5E
:10215000FEE7FFF7F9FB00284BD000F0A9FBA36BCB
:10216000002B40F09280019A002A34D002A80093FC
:10217000FFF76CFB009D00F0BDFBFFF701FA00F0DC
:1021800097FB94F84430FF2B04BF002384F84430BD
:1021900094F84530FF2B04BF002384F8453000F04D
:1021A000A9FB01A902A8FFF75DFB00282DD100F0D3
:1021B0007FFBA36B002B41D000F09CFB2046FFF778
:1021C0004BFDFFF7E5F900F073FBA36B002B5CD12F
:1021D000019B002BCFD100F08DFB002005B030BD5E
:1021E0004FF0A00383F31188BFF36F8FBFF34F8FBE
:1021F000FEE7019B002BB0D04FF0A00383F31188C2
:10220000BFF36F8FBFF34F8FFEE72046FFF724FD2C
:10221000FFF7BEF900F04CFBA36B53BB00F06AFB69
:10222000002DDAD000F044FB616A19B1236B196804
:10223000C1F10801A068FFF759FCCCE700F05AFB98
:102240002368CBB1019904F12400FFF72BFA204653
:10225000FFF702FDFFF79CF90028B4D14FF0E0230F
:102260004FF08052C3F8042DBFF34F8FBFF36F8F31
:10227000A9E700F03FFBA6E700F01AFBA068FFF714
:1022800073FB054600F036FBDCE72268013BA363E5
:102290002AB123693BB900F02DFB01209EE7FFF72F
:1022A00093FCA060F5E704F11000FFF74DFA002859
:1022B000F1D04FF0E0234FF08052C3F8042DBFF36C
:1022C0004F8FBFF36F8FE6E770B504460D46164695
:1022D00000F0EEFA94F84430FF2B04BF002384F89A
:1022E000443094F84530FF2B04BF002384F8453078
:1022F00000F000FBA36B23B12046BDE87040FFF760
:10230000ABBC04F1240032462946FFF7E5F920462C
:10231000BDE87040FFF7A0BC4FF0FF31002200F194
:102320000803C0E90131C0E903330260704700BF10
:1023300000230361704700BF0A6800B5531C12D028
:1023400000F108039C465B68D3F800E09645F9D994
:1023500002684B6001329960C1F808C0CCF80410E3
:102360000861026000BDD0F810C0DCF80430EFE76F
:1023700003460269D3E90101D2F804C081609C459B
:10238000486008BF51600021106819610138106071
:10239000704700BF00B583B000F08AFA104B1A688E
:1023A00022B103B05DF804EB00F0A4BA0D4801922D
:1023B000FFF7B2FF0C48FFF7AFFF0C490A4B0C4880
:1023C0000B60084B0C210360019A0A20FFF7E0FC28
:1023D000034B186003B05DF804EB00F08BBA00BF4C
:1023E000F001002010020020FC010020F401002078
:1023F000F80100202DE9F047DFF87C900546D9F878
:1024000000300F46DB68DC68201DFFF7B1FF94F851
:1024100028305A070ED423F0010384F828302046D0
:10242000236ABDE8F047184793421BD82046236A29
:1024300098473546A3697A1BEE182CBF012100216D
:10244000B74266602461EFD2AF4201D20029EDD0DD
:10245000D9F80000211DFFF76FFF2046236ABDE871
:10246000F0471847054B211D1868FFF765FF204608
:10247000236ABDE8F0471847F8010020F401002066
:102480002DE9F04F4FF0000A894EDFF82882DFF87F
:1024900028928A4F85B033681D68002D40F0DD809A
:1024A000FFF76EF8FFF78AF8D8F800300446834249
:1024B00077D8D9F80030C8F800001A68B2FA82F26A
:1024C00052093868291BFFF7FFFEFFF761F848B98A
:1024D0004FF080534FF0E022C2F8043DBFF34F8F1E
:1024E000BFF36F8FCDE901AACDF80CA000223868A8
:1024F00001A9FFF75BFD0028CDD0019B002BF5DB88
:10250000039C002CF2D0636913B1201DFFF730FF4C
:10251000FFF754F8D8F800300546984212D3019BD3
:10252000C8F80050013B082BE0D8DFE803F0151590
:102530007C678315157C6700DB684FF0FF311868F6
:10254000FFF758FF33681A68002AF5D1D9F8002040
:10255000C9F800303260E2E794F82810029AA069C6
:1025600041F0010384F8283013182CBF4FF0010C00
:102570004FF0000CAB426360246164D8AA1A904209
:102580004BD84A0722D421F0010184F828102046B4
:10259000236A9847AAE7DB684FF0FF311868FFF716
:1025A00029FF33681A68002AF5D1D9F80020C8F845
:1025B00000403260C9F80030FEF7EAFF92E781423E
:1025C00060D32046236A98475B46A06913EB000B53
:1025D0002CBF4FF0010C4FF0000C5D45A5EB030143
:1025E000C4F804B02461EAD29D4202D2BCF1000FCB
:1025F000E7D03068211DFFF79FFEC8E794F8282038
:10260000029B42F0010284F82820A361002B46D0EF
:102610002B44AB42636024611AD8D9F80000211D15
:10262000FFF78AFE62E794F8283023F0010384F86C
:1026300028305BE794F828309A071FD523F0010370
:1026400084F8283052E7AA4202D9BCF1000F98D092
:102650003068211DFFF770FE48E7DB681D68FEF754
:102660008FFFFEF7ABFFD8F800300446834298D8BE
:102670008542C8F800000BD9002222E7204600F06E
:10268000E3FA33E7D9F80000211DFFF755FE7EE796
:10269000FEF77EFF21462846FFF7ACFE22E74FF00B
:1026A000A00383F31188BFF36F8FBFF34F8FFEE753
:1026B000F8010020E8010020F4010020F0010020D2
:1026C00000B583B0FFF766FE0D4B1B686BB14FF092
:1026D000070C0C48002301904FF480720A490B4804
:1026E000CDF800C0FEF762FD40B94FF0A00383F3C0
:1026F0001188BFF36F8FBFF34F8FFEE703B000BDAC
:10270000F0010020EC010020AC4800008124000012
:10271000F0B5054683B02C201F460C46164600F047
:10272000B5F9034600B3002280F8282044B94FF0E1
:10273000A00383F31188BFF36F8FBFF34F8FFEE7C2
:102740000190FFF727FE019B089AC3E906471D6029
:102750001A62181DFFF7ECFD019B2EB193F828209B
:1027600042F0040283F82820184603B0F0BD00BFF1
:1027700010B5144C84B0236873B170B10529CDE94C
:10278000011203900BDD4FF0A00383F31188BFF318
:102790006F8FBFF34F8FFEE7184604B010BDFFF7F1
:1027A000D3F802284FF0000306D01A46206801A98A
:1027B000FFF720FB04B010BD069A206801A9FFF7BF
:1027C00019FBEAE7F0010020074B19680868B0E838
:1027D000F00F80F30988BFF36F8F4FF0000080F394
:1027E00011884EF00D0E7047E40100200648006885
:1027F000006880F3088862B661B6BFF34F8FBFF3FD
:102800006F8F00DF00BF000008ED00E0EFF30980EC
:10281000BFF36F8F0D4B1A6820E9F00F106008B5F9
:102820004FF0A00080F31188FEF7DEFE4FF00000AD
:1028300080F31188BDE8084019680868B0E8F00F17
:1028400080F30988BFF36F8F70470000E401002018
:1028500000220E4B82B01B680192013308D04FF06A
:10286000A00383F31188BFF36F8FBFF34F8FFEE791
:102870004FF0A00383F31188BFF36F8FBFF34F8F27
:10288000019B002BFCD002B0704700BF000000206D
:102890004FF08073DFF814C021F0010140E903C15B
:1028A00040F8043C40F8202C403870475128000084
:1028B0004FF0A00383F31188BFF36F8FBFF34F8FE7
:1028C0000B4A13680133012B136000D070474FF09F
:1028D000E023D3F8043DDBB2002BF7D04FF0A00388
:1028E00083F31188BFF36F8FBFF34F8FFEE700BFF5
:1028F00000000020084A136843B94FF0A00383F397
:102900001188BFF36F8FBFF34F8FFEE7013B13605A
:102910000BB983F3118870470000002008B54FF011
:10292000A00383F31188BFF36F8FBFF34F8FFEF7C0
:102930004BFE28B14FF0E0234FF08052C3F8042D36
:10294000002383F3118808BD4FF0E023002242F6F4
:10295000DF6007211A619A6158611961704700BFF1
:102960004FF0E023D3F8083D424AD96A914208D09B
:102970004FF0A00383F31188BFF36F8FBFF34F8F26
:10298000FEE73D4A9B6B934208D04FF0A00383F3D0
:102990001188BFF36F8FBFF34F8FFEE70022FF2038
:1029A00000B5364B83B001921A7835498DF8022074
:1029B00018701B788DF803309DF8033003F0A003E6
:1029C0000B70002B4AD09DF80330DB4313F0A00FAF
:1029D00010D04FF0A00383F31188BFF36F8FBFF3C4
:1029E0004F8FFEE7019B013301939DF803305B009D
:1029F0008DF803309DF803301B06F3D4019B082BA0
:102A000035D0019BC3F107031B0203F4E0634FF0D1
:102A1000E0220020DFF86CC09DF80210CCF80030F6
:102A2000164B1970D2F8203D43F47F03C2F8203DC5
:102A3000D2F8203D43F07F43C2F8203DC2F81C0D80
:102A4000FFF782FF0020104B1860FFF7CFFEFEF764
:102A5000CBFD0020FFF7FCFE03B000BD4FF0A0034C
:102A600083F31188BFF36F8FBFF34F8FFEE700230F
:102A7000CDE700BFC92700000D28000000E400E0FA
:102A8000280200202402002000000020F8B5431E88
:102A90000A332CD810F0070300F1080433D1624E3A
:102AA000FEF76EFD33682546002B4DD0002C23DB4E
:102AB0005E4FD7F800E0A6451ED35D485D49036828
:102AC0008B4236D35C4DAB4233D884465868A04223
:102AD00054D21A68002A51D08A4225D24FF0A0035E
:102AE00083F31188BFF36F8FBFF34F8FFEE74E4E16
:102AF000FEF746FD33682BB3FEF74AFD0026FDF7CF
:102B0000DFFD3046F8BDA3F10902A242EFD3464EE5
:102B10001030C41AFEF734FD33682546A3B1002DEA
:102B2000EADB002CC4D1E7E7AA42D7D89C4613467B
:102B3000CCE74FF0A00383F31188BFF36F8FBFF38F
:102B40004F8FFEE700252C463A493C4B4F070EBFFE
:102B50000A46CA1D22F007021046002123F007038F
:102B6000334F9A1AC7E900013360C3E90011C0E985
:102B70000032334B1A602D4B1A60D0E732689A420C
:102B8000BAD0DCF8002002F108068E420FD3AE4224
:102B90000DD81968A042CCF8001011D24FF0A00354
:102BA00083F31188BFF36F8FBFF34F8FFEE74FF0B2
:102BB000A00383F31188BFF36F8FBFF34F8FFEE73E
:102BC000051B102D10D91A19500708D04FF0A0037B
:102BD00083F31188BFF36F8FBFF34F8FFEE720465B
:102BE00055601951CCF800201549AEEB00020C6875
:102BF0003A60A2424FF0000438BF0A60114940F029
:102C000000400A68586001321C600A60FEF7C0FC90
:102C100073073FF476AF4FF0A00383F31188BFF33F
:102C20006F8FBFF34F8FFEE73C0200203802002079
:102C3000400200204802002047A2002040A20020BD
:102C40003402002030020020E8B1444AA0F1080319
:102C500093420FD342498B420CD850F8041C0029F0
:102C600012DB4FF0A00383F31188BFF36F8FBFF324
:102C70004F8FFEE74FF0A00383F31188BFF36F8FF0
:102C8000BFF34F8FFEE7704710B550F8084C82B085
:102C900044B14FF0A00383F31188BFF36F8FBFF3EC
:102CA0004F8FFEE721F0004140F8041C0193009093
:102CB000FEF766FCDFF8ACC00098DCF8003050F896
:102CC00004EC29497344CCF80030244A019B8C461B
:102CD00009688B42FBD8244CA44504D094451BD3EF
:102CE0001F4A944518D8DCF804200CEB0204A342D8
:102CF00024D003EB0E02914217D040F8081C9C45EB
:102D000018BFCCF80030194A13680133136002B0C1
:102D1000BDE81040FEF73CBC4FF0A00383F31188E0
:102D2000BFF36F8FBFF34F8FFEE7114A12689142D6
:102D3000E3D006C97244C3E90012E0E796440CEB05
:102D40000E039942CCF804E0DDD1094B1B688B429D
:102D500001D06346EDE7CCF80010D4E7480200202C
:102D600047A2002038020020400200202C02002050
:102D70003C020020174A20F00043934218D900B5C6
:102D8000B3F1FF4F83B004D30146FDF711FA03B04E
:102D900000BD694600F098F900F00302012A00988E
:102DA00001990DD0022A06D07AB900F049F8EEE771
:102DB000002100F045B800F043F800F10040E6E7DC
:102DC00000F008F900F10040E1E7012200F002F90B
:102DD000DDE700BFD80F493F184A20F00043934277
:102DE00019D900B5B3F1FF4F83B004D30146FDF705
:102DF000DFF903B000BD694600F066F900F0030397
:102E0000012B0098019910D0022B08D083B9012220
:102E100000F0E0F8EDE70022002100F0DBB801222D
:102E200000F0D8F800F10040E3E700F009F8E0E72F
:102E300000F006F800F10040DBE700BFD80F493F83
:102E40002DE9F04320F00043B3F1485F05460F46FB
:102E500083B04AD2FDF72CFB002800F0A180294660
:102E60002846FDF7EDF804465049FDF7E9F85049CA
:102E7000FDF7A0F92146FDF7E3F84E49FDF798F973
:102E80002146FDF7DDF84C49FDF794F92146FDF7A1
:102E9000D7F84A49FDF78CF92146FDF7D1F84849A2
:102EA000FDF788F92146FDF7CBF880464FF07C51BD
:102EB0002046FDF7C5F8414606462046FDF7C0F816
:102EC000394604462846FDF7BBF801462046FDF783
:102ED0006FF901463046FDF76BF901464FF07E5021
:102EE000FDF766F903B0BDE8F08301460193FDF7F5
:102EF000A7F804462D49FDF7A3F82D49FDF75AF927
:102F00002146FDF79DF82B49FDF752F92146FDF7C3
:102F100097F82949FDF74EF92146FDF791F8274921
:102F2000FDF746F92146FDF78BF82549FDF742F9F3
:102F30002146FDF785F8234A019B80469342B5D987
:102F4000214A934228D803F17F414FF07E500E462C
:102F5000FDF72EF9814620464FF07C51FDF770F8C1
:102F60003146FDF725F9414606462046FDF768F84B
:102F7000394604462846FDF763F801462046FDF72A
:102F800017F901463046FDF713F901464846FDF7AB
:102F90000FF903B0BDE8F083DFF830900C4EDAE7AC
:102FA0004FF07E5003B0BDE8F08300BF4ED747AD71
:102FB000F6740F317CF29334010DD037610BB63AC1
:102FC000ABAA2A3D9999993E0000483F0000383F3E
:102FD0000000903E2DE9F04120F00043B3F1485F3E
:102FE00004468846174682B003D2FDF761FA0028EE
:102FF00059D021462046FDF723F8054601462046D4
:10300000FDF71EF82A4906462846FDF719F8294912
:10301000FDF7CEF82946FDF713F82749FDF7CAF862
:103020002946FDF70DF82549FDF7C2F82946FDF7B9
:1030300007F82349FDF7BEF82FB301904FF07C51FC
:103040004046FCF7FDFF4746019980463046FCF7B5
:10305000F7FF01464046FDF7ABF82946FCF7F0FFC5
:103060003946FDF7A5F8174905463046FCF7E8FF55
:1030700001462846FDF79EF801462046FDF798F8E0
:1030800002B0BDE8F08101462846FCF7D9FF0D49A2
:10309000FDF78EF83146FCF7D3FF2146FDF78AF89D
:1030A00002B0BDE8F081204602B0BDE8F08100BF6B
:1030B000D3C92E2F342FD7321BEF3836010D50399C
:1030C0008988083CABAA2A3EDFF8C0C220F0004342
:1030D00063457FD92DE9F0438846AD4904468B42CC
:1030E00089B024D820F0004323F00F030028A94919
:1030F000029340F33281FDF75BF8A74A029B044636
:10310000934276D0A549FDF753F803462046194669
:103110001C46FDF74DF8A149FDF74AF80122C8F811
:103120000040C8F80400104609B0BDE8F0839C498F
:103130008B426ED9B3F1FF4F52D2DA15863AA3EB28
:10314000C253184616460293FDF7B2F9FDF7E6F8AA
:10315000014602980591FDF72BF84FF08741FCF7E7
:103160006FFF0546FDF7A4F9FDF7D8F8034628469A
:10317000194606930293FDF71BF84FF08741FCF7C1
:103180005FFF00210790FDF761F9002800F0BF8084
:1031900000210298FDF75AF9002814BF01230223E9
:1031A0004FF0020C7F493246019105A84146CDF807
:1031B00000C000F01DF9002C0246B4DAD8E9001373
:1031C00001F1004103F10043C8F80010C8F80430D1
:1031D0004242A8E70023002208604B601046704777
:1031E0000146FCF7E5FF0022C8F80400C8F800001B
:1031F00099E76D49FCF7DCFF6C490546FCF7D8FF01
:10320000044628462146FCF7D3FF6849FCF7D0FF67
:1032100084E7039300F0E8F865490546FCF710FFE2
:103220004FF07C51FCF7C6FFFDF742F90290FDF725
:1032300075F8584906468146FCF702FF01462846C4
:10324000FCF7B6FF554905463046FCF7F9FE014646
:1032500007462846FCF7ACFF029A06461F2A039B46
:103260000CDC5449501E51F8200024F0004121F09C
:10327000FF01814202D0C8F8006030E0C6F3C751B8
:10328000C1EBD3510829F6DD47494846CDE9023262
:10329000FCF7D6FE064601462846FCF789FF0146A4
:1032A00028460D46FCF784FF3146FCF781FF0646B1
:1032B0003E494846FCF7C4FE3146FCF779FF01461B
:1032C00007462846FCF774FF029BC0F3C751C1EBC9
:1032D000E353192B0646039A1BDCC8F8000031465D
:1032E00028460292FCF764FF3946FCF761FF002C88
:1032F000029AC8F80400BFF616AF06F1004300F1C9
:103300000040C8F80030C8F8040052420BE703231D
:1033100046E7294948460392FCF792FE014602908F
:103320002846FCF745FF014628460D46FCF740FFBE
:103330000299FCF73DFF074620494846FCF780FE0E
:103340003946FCF735FF014607462846FCF730FFB3
:10335000039A0646C8F80000C1E7FCF72BFF0E4AA7
:10336000029B054693422BD00C49FCF723FF0446F1
:1033700028462146FCF71CFF0849FCF71BFF4FF0CD
:10338000FF32C8F80040C8F80400CCE6D80F493F27
:10339000E3CB1640800FC93FD00FC93F43443537B8
:1033A000800F4943384900000044353708A3852E73
:1033B00084F9223FB848000000A3852E32318D24C5
:1033C0000749FCF7F7FE07490546FCF7F3FE0446FC
:1033D00028462146FCF7ECFE0249FCF7EBFECEE75F
:1033E0000044353708A3852E20F00040704700BF09
:1033F0002DE9F04F9E46DDB0B74B099166998046A6
:1034000053F821A00EF1FF33111D0B920293C0F26D
:10341000B382D31E48BF131DDB1006930133DB00BC
:103420000A93DDE90A239A1A0EF1FF331AEB030718
:1034300022D4069B0EF1FF3101375D1A2F443E4620
:1034400000249346DDF89C9120AFCDF800E008E021
:1034500059F82500FCF762FF0135B54247F8040B27
:1034600007D0002DF4DA20460135B54247F8040BA9
:10347000F7D15A46DDF800E0BAF1000FC0F21E8124
:10348000029B48AF002B9946B8BF00200AEB0E0CF8
:10349000C0F20881A8F10403E0464FEA8E05CDE9A9
:1034A000045E0DF1800BCDF800A00193CA4603EB3A
:1034B0008E060BEB8E0903924D460024DDF804B016
:1034C00055F8041D5BF8040FFCF7BAFD01462046D1
:1034D000FCF770FEB3450446F2D10AF1010AC24579
:1034E00047F8040B09F10409E6D1DDE90325DDF80D
:1034F00000A0DDF814E0019B0BA800EB8A000CA9EA
:10350000D146CDE903A21D44079001EB8A0ACDF80C
:1035100020E00DEB8903D3F820B1B9F1000F4FEA99
:103520008903009322DD0DF590780CAE08EB0304BF
:103530004FF06E515846FCF783FDFCF7B9FFFCF7DE
:10354000EDFE4FF087410746FCF77AFD01465846ED
:10355000FCF72EFEFCF7ACFF54F8041D46F8040BF4
:103560003846FCF727FE44458346E1D1DDF810805C
:103570005846414600F0FAFA4FF078510446FCF7FD
:103580005FFD00F04DFB4FF08241FCF759FD014615
:103590002046FCF70DFE0446FCF78AFF0646FCF7C2
:1035A000BDFE01462046FCF703FEB8F1000F0746BA
:1035B00040F3948009F1FF320CAB53F82230C8F18C
:1035C000080043FA00F101FA00F01B1AC8F10708DD
:1035D00043FA08F80E44B8F1000F0CA941F8223064
:1035E00000F3478100213846FCF730FF002800F047
:1035F0008680039B99450CDD0022009B30336B4491
:1036000053F8041D534542EA0102F9D1002A40F063
:103610009381039B0CAA013B52F8233009F1010767
:10362000002B40F087810123079A52F8041D0133D3
:103630000029FAD009EB0302069B20AE03EB090137
:10364000089B67984B4406EB8306009B0DF590782A
:1036500000EB810998440092CDF814A059F8040FAA
:10366000FCF75CFE029B46F8040B002B2CDBB246F9
:103670000024DDF804B05AF8041D5BF8040FFCF7D1
:10368000DFFC01462046FCF795FDAB450446F2D130
:10369000009B01379F4248F8044FDFDD9946DDF873
:1036A00014A036E709F101036345386009F1020906
:1036B00004D0E145786007F10807F3D1A8F10403CD
:1036C00001934FEA8E0516E70024009B01379F42C5
:1036D00048F8044FC2DDE1E77C4C000000F00F81A8
:1036E0004FF07C51FCF7D0FE002840F04A81804624
:1036F00000213846FCF7AAFE00287FF47AAFDDE906
:1037000003A238460092DDE90A32991ACDF80490F6
:1037100000F02CFA4FF087410446FCF7B5FEDDE9D6
:103720000023CDE90032002800F0C6814FF06E5131
:103730002046FCF785FCFCF7BBFEFCF7EFFD4FF0E5
:1037400087410546FCF77CFC01462046FCF730FD2E
:10375000FCF7AEFE009B0CAA42F82300019A284613
:1037600008325F1C0092FCF7A3FE0CAB009A43F8F2
:10377000270011464FF07E5000F0F8F9002F8346E5
:10378000C0F2C9814FF06E590DAB49ACB90003EBE3
:10379000870504EB8704009155F8040DFCF7BEFD86
:1037A0005946FCF74DFC02464946584644F8042D5C
:1037B000FCF746FC0CAB9D428346EDD1009947AA2D
:1037C000BAF1000F0196CDF808804FF000060DF118
:1037D000D00902EB01080097039121DB4746002442
:1037E0000025DFF81CB20DE057F8041F5BF8040B4E
:1037F000FCF726FC01462046FCF7DCFC0135AA4517
:10380000044601DBB542EFDD009B49F8044B9E42C4
:10381000A8F104080CD0BAF1000F06F10106DDDAB8
:103820000024009B49F8044B9E42A8F10408F2D101
:10383000DDE90168669B009F022B039900F3E2809B
:10384000002B00F3B0800FD1002035AC0C4454F8AD
:10385000041DFCF7AFFC34ABA342F8D1B8F1000F64
:1038600040F04A81099B186006F007005DB0BDE892
:10387000F08FB9F1000F06F1010640F340810021FD
:103880000CAB53F8044B5CBB01314945F9DB049B9D
:10389000002B0DDD012B64D0022B09D109F1FF3281
:1038A0000CAB53F822300CA903F03F0341F822304F
:1038B000B8F1020F7FF496AE39464FF07E50FCF718
:1038C00077FC0746002C3FF48DAE04994FF07E50F4
:1038D00000F04CF901463846FCF76AFC074681E6E1
:1038E000C4F5807443F8044C04E01A68C2F1FF0286
:1038F00043F8042B01318945F7DC0124C7E709F1BE
:10390000FF330CAA52F823304FEAE318B8F1000F46
:103910007FF768AEB9F1000F06F10106AFDCB8F130
:10392000020F7FF45FAE39464FF07E50FCF740FC4B
:10393000074657E63A467FE609F1FF370CAB53F8E6
:103940002730DDE903A2083A002B7FF412AF009B79
:103950000BA90B4453F8041D013F083A0029F9D084
:1039600007E709F1FF320CAB53F822300CA903F042
:103970007F0341F822309BE708230A930023069334
:103980004FE5B9F1000FC8BF4FF0020806F101067C
:103990003FF775AF39464FF07E50FCF709FC4FF00A
:1039A000020807461EE6002035ACDDF8D0A00C4426
:1039B00054F8041DFCF7FEFB34ABA342F8D10546D6
:1039C0005046B8F1000F40F08C802946FCF7F0FB20
:1039D000099B1D6067B1012554F8041F0135FCF7F0
:1039E000E9FBAF42F8DAB8F1000F01D000F1004076
:1039F000099B586006F007005DB0BDE8F08F00BF7E
:103A0000504C0000669B032B7FF42EAF002F00F07C
:103A10009D8034AB03EB010B5D46894634AA5458B4
:103A2000009655F8046C20463146FCF7C3FBA246CD
:103A3000044630462146FCF7BBFB5146FCF7BAFB77
:103A4000AA46286045F8044C34AB043DAB42E8D1AB
:103A5000012F009E7AD04F4653F809405BF8049C32
:103A600020464946FCF7A6FB254604464846214623
:103A7000FCF79EFB2946FCF79DFBCBF800004BF8BA
:103A8000044DDA45EAD100200AEB07050AF1040AE1
:103A900055F8041DFCF78EFBAA45F9D1349A359BE5
:103AA000B8F1000F12D109990A604B60886006F0E6
:103AB00007005DB0BDE8F08F2046FCF7F9FC009BE5
:103AC0000CAA42F823001F46019A52E6099902F116
:103AD000004203F1004300F100400A604B6088603F
:103AE000E5E7099A05F1004329461360FCF760FBFE
:103AF000002F7FF470AF79E700F10040B2E604993F
:103B0000012915D002297FF40AAF03F03F030CA965
:103B100041F8223003E7669B022B13DC002B17DCF5
:103B20007FF4A2AE0020B8F1000F3FF49BAEE3E7B4
:103B300003F07F030CA9B8F1020F41F822307FF4A3
:103B400051ADF0E6669B032B7FF48EAE0020A5E717
:103B50003498B8F1000F04D04FF00043099A136075
:103B600044E70023099A136042E700BF30F0004C9D
:103B7000034624D0BCF1FF4F10B50C461BD210F009
:103B8000FF4F02461CD14FF09841FCF759FA214AE9
:103B9000034694422EDB4CF25031C0F3C75C8C429A
:103BA0000246ACF1190C11DD18461B4961F31E00E9
:103BB000FCF746FA10BD0146FCF7FCFA10BD704751
:103BC0004CF250318C424FEADC5CEDDC04EB0C0132
:103BD000FE29E9DC002911DC11F1160F13DB01F1DC
:103BE000190022F0FF424FF04C5142EAC050FCF75E
:103BF00027FA10BD0949FCF723FA10BD22F0FF4255
:103C000042EAC15010BD1846044961F31E00FCF79A
:103C100017FA10BDB03CFFFFCAF249716042A20D15
:103C200030B5C0F3C7527F3A162A0346044683B024
:103C30001CDC002A27DB204941FA02F528421AD071
:103C40001E4900900192FCF7B5FA0021FCF726FC12
:103C500038B34FF40000019A1041204434EA2403A1
:103C600028BF034623EA050003B030BD20F0004220
:103C7000B2F1FF4F02D2184603B030BD0146FCF747
:103C800099FA03B030BD0D490090FCF793FA00217A
:103C9000FCF704FC18B1002C05DB0020ECE7204603
:103CA000EAE70098E8E724F0004313B94FF000403A
:103CB000E2E70348E0E700BFFFFF7F00CAF2497177
:103CC000000080BF30B5141E05461A469BB005DAC9
:103CD0008B2303604FF0FF301BB030BD4FF000036B
:103CE000199318BF0123E31A02930593084B00911F
:103CF0000491039369461E9B00F086F9431CBCBFE8
:103D00008B232B60002CE7D00022009B1A70E3E786
:103D10000802FFFF07B5009313460A460146034811
:103D20000068FFF7CFFF03B000BD00BF0400002014
:103D300003460244934200D1704703F8011BF9E7A0
:103D4000704770470A44914200F1FF3300D1704739
:103D500010B511F8014B914203F8014FF9D110BD94
:103D600037B5002942D051F8043C0C1F002BB8BFD6
:103D7000E418019000F0DCF81D4A0198136833B98B
:103D80006360146003B0BDE8304000F0D7B8A342D0
:103D900008D9256861198B4201BF19685B68491908
:103DA0002160EDE71A465B680BB1A342FAD91168AE
:103DB0005518A5420BD1246821445418A342116020
:103DC000E0D11C685B680C4414605360DAE702D9E8
:103DD0000C230360D6E7256861198B4201BF19687F
:103DE0005B684919216063605460CBE703B030BD64
:103DF0008CA3002070B50F4C0E462168054611B902
:103E000000F0B4FB20603146284600F0AFFB431CB5
:103E100003D14FF0FF34204670BDC41C24F00304CE
:103E2000A042F8D0211A284600F0A0FB0130F2D1C0
:103E3000EFE700BF88A300202DE9F843CD1C25F053
:103E4000030508350C2D38BF0C25002D064601DB77
:103E5000A94204D90C2333600020BDE8F883334F16
:103E600000F066F83B681C463CBB29463046FFF72D
:103E7000C1FF431C044656D13C68A046B8F1000F70
:103E800040D1002C49D023684146304604EB030959
:103E900000F06CFB814540D1216830466D1A2946FF
:103EA000FFF7A8FF013038D023682B4423603B681C
:103EB0005A685ABBC7F800800EE02268521B1ED415
:103EC0000B2A16D96119A342256018BF596063688F
:103ED00008BF396062514B60304600F02FF804F1A2
:103EE0000B00231D20F00700C21A1CBF1B1AA35091
:103EF000B3E76268A3420CBF3A605A60ECE723461E
:103F00006468B1E74446D8F80480B7E71A465B68AE
:103F1000A342FBD100235360DEE70C23304633601D
:103F200000F00CF898E70560D6E700BF8CA30020EE
:103F30000148FFF705BF00BF84A300200148FFF739
:103F400000BF00BF84A300202DE9F0471F468E6804
:103F50008246BE420C469046334653D8B1F90C0017
:103F600010F4906F2BD065692368096905EB45054E
:103F7000A3EB010905EBD5757B1C6D104B44AB42DF
:103F80002A4684BF1D462A46430527D5114650467A
:103F9000FFF752FF064658B34A462169FFF7D2FEA3
:103FA000A38923F4906343F08003A38126614E44E8
:103FB00026603B463E466561A5EB0905A5601F46A8
:103FC0003A464146206800F0B7FA0020A3689B1BE0
:103FD000A36023683B442360BDE8F087504600F0AF
:103FE000E3FA06460028E1D150462169FFF7B8FE02
:103FF0000C23CAF80030A3894FF0FF3043F0400390
:10400000A381E9E73E46DBE72DE9F0471F468B89B0
:1040100006461B060D4614469CB010D50B6973B9B5
:104020004021FFF709FF2860286130B90C23336075
:104030004FF0FF301CB0BDE8F08740236B610023D8
:10404000099320238DF8293030234FF0010803977E
:10405000644F8DF82A3023461A7899461AB1252ADA
:1040600003F10103F8D1B9EB040A0BD05346224601
:1040700029463046FFF768FF013000F0A380099A17
:104080005244099299F80030002B00F09B800022E6
:104090004FF0FF33CDE9053209F10109049207928F
:1040A0008DF853201A924C46052214F8011B4D48F6
:1040B00000F06CFA049AD0B9D00644BF20238DF8E2
:1040C0005330110744BF2B238DF8533099F800303B
:1040D0002A2B13D04B4600204FF00A0C07991A7870
:1040E0001C46303A092A4AD9A8B1079113E0C01BEF
:1040F00008FA00F01043A1460490D4E7039B191D71
:104100001B680391002BBBBF5B4242F00202079386
:104110000793B8BF049223782E2B0AD163782A2BF9
:1041200032D1039B02341A1D1B68039243EAE373E6
:104130000593DFF8B49003224846217800F026FA70
:1041400038B14022049BA0EB0900824013430134A4
:1041500004932178062225488DF8281000F016FADD
:10416000002835D0224818BB039B073323F00703F0
:1041700008330393099B0134034409936BE701203F
:104180000CFB01210133AAE700234FF00A0C18466B
:104190000593611C0A780C46303A092A03D9002B92
:1041A000C7D00590C5E701230CFB00200131F1E7E2
:1041B00003AB00932A4630460E4B04A9AFF30080B0
:1041C000421CD7D1AB895B063FF532AF099831E786
:1041D00003AB00932A463046064B04A900F082F850
:1041E000EEE700BF884C00008E4C0000924C0000AF
:1041F00000000000493F00002DE9F0479146984635
:104200008A680B6907469342B8BF1346C9F8003065
:1042100091F843200C46089E12B10133C9F80030D2
:104220002368990642BFD9F800300233C9F800303C
:10423000256815F0060507D104F1190AE368D9F8D5
:1042400000209B1AAB4229DC94F843302268003BE3
:1042500018BF012392062ED44146384604F143028A
:10426000B047013021D02368A16803F00603042B76
:1042700012BF0025E568D9F80030226904BFED1AA5
:1042800025EAE5758B1A2B449142C8BF1D464FF0B5
:1042900000091A344D451AD1002008E00123524686
:1042A00041463846B047013003D14FF0FF30BDE8FA
:1042B000F0870135C2E73020E11881F843005A1C2D
:1042C00094F845102244023382F84310C4E70123D6
:1042D000224641463846B0470130E6D009F101098F
:1042E000D8E700002DE9F04398460B7E85B0782B87
:1042F000174606460C460C9A09D8622B01F1430179
:1043000008D8002B00F0DC80582B00F0BD8004F1B1
:10431000420539E0A3F163001528F8D801A555F846
:1043200020F000BF7D430000914300000F430000D8
:104330000F4300000F4300000F43000091430000B3
:104340000F4300000F4300000F4300000F43000025
:10435000A1440000BD4300004F4400000F43000093
:104360000F430000C94400000F430000BD4300009C
:104370000F4300000F43000057440000136804F18E
:104380004205191D1B68116084F842300123A8E022
:1043900013682568181D1060280601D51B6803E006
:1043A0006A06FBD5B3F90030002B03DA2D225B42FD
:1043B00084F843200A22DFF878C113E025681068EA
:1043C00015F0800F50F8043B02D16D0648BF9BB238
:1043D0001060227EDFF858C16F2A5DD108220020CC
:1043E00084F843006568002DA56005DB20681D4347
:1043F00020F00400206051D00D46B3FBF2F002FB28
:10440000103E1CF80EE09A4205F801ED0346F4D97F
:10441000082A0BD12368DA0708D5236962689A4213
:10442000DEBF302305F8013C05F1FF35491B216152
:104430003B4621463046CDF8008003AAFFF7DCFE5C
:10444000013053D14FF0FF3005B0BDE8F083236851
:1044500043F0200323607823DFF8D8C084F8453088
:104460002068156810F0800F55F8043B03D110F058
:10447000400F18BF9BB21560C50744BF40F0200035
:10448000206023B11022AAE7DFF8A4C0E6E7226883
:1044900022F020022260F5E70A22A0E70D46B7E7E6
:1044A0001368D4F800C01D1D60691CF0800F1560F2
:1044B0001B6801D0186003E01CF0400FFAD0188090
:1044C00000230D462361B3E71368191D11601D68B1
:1044D00000212846626800F059F808B1401B60606E
:1044E00063682361002384F84330A1E72A463946F4
:1044F00030462369C0470130A4D023689B0714D4F9
:10450000E068039B9842B8BF18469DE701233946EF
:10451000304604F11902C047013093D00135E368F9
:1045200003995B1AAB42F1DCEAE70025F7E700BF2D
:10453000994C0000AA4C0000884210B501EB02041F
:1045400002D98442234607D8431EA14207D011F85E
:10455000012B03F8012FF8E70244824200D110BD7D
:1045600013F8011D02F8011DF7E7000038B500231C
:10457000054C05460846236000F04CF8431C02D168
:10458000236803B12B6038BD80A30020034610B51B
:10459000C9B20244934201D1002004E018460478D5
:1045A00001338C42F6D110BD2DE9F0410746154686
:1045B0000C4621B91146BDE8F041FFF73DBC2AB9D0
:1045C000FFF7CEFB2C462046BDE8F08100F01AF83C
:1045D0008542064602D8B5EB500FF4D82946384636
:1045E000FFF72AFC804608B94446ECE7B5422A4664
:1045F000214628BF3246FFF7A5FB21463846FFF784
:10460000AFFBF1E751F8043C181F002BBCBF0B585F
:10461000C0187047044A05491368002B08BF0B46B1
:10462000184410601846704790A3002098A30020FB
:104630000D0A3D3D3D20536174656C6C69746520C5
:10464000466C6967687420436F6D7075746572207D
:10465000426F6F74696E67203D3D3D0D0A0000009A
:104660004144435300000000544C4D00484C54005A
:10467000434D44005461736B7320637265617465CC
:10468000642E205374617274696E67207363686569
:1046900064756C65722E2E2E0D0A00004641544141
:1046A0004C3A205363686564756C65722066616975
:1046B0006C6564210D0A0000464154414C3A205378
:1046C0007461636B206F766572666C6F7720696EBC
:1046D000207461736B205B25735D0D0A0000000080
:1046E000464154414C3A204865617020616C6C6FC2
:1046F000636174696F6E206661696C65642E204920
:104700006E63726561736520636F6E666967544F8F
:1047100054414C5F484541505F53495A452E0D0A5C
:10472000000000005B484D5D204641554C543A2046
:104730004144435320686561727462656174206D01
:104740006973736564210D0A000000005B484D5DCC
:10475000205741524E494E473A204144435320731B
:104760007461636B206C6F773A20257520776F72C8
:104770006473206C6566740D0A0000005B484D5D33
:10478000207469636B3D2575206661756C74733D9B
:1047900030782530325820616463735F68623D254C
:1047A000750D0A005B434D445D2052656164792EAE
:1047B000204C697374656E696E6720666F72207530
:1047C000706C696E6B20636F6D6D616E64732E2EFD
:1047D0002E0D0A005B434D445D2052783A2030781C
:1047E00025303258202827256327290D0A0000008C
:1047F0005B434D445D204D6F6465202D3E20534149
:1048000046450D0A000000005B434D445D204D6F9E
:104810006465202D3E20444554554D424C450D0ABB
:10482000000000005B434D445D206D6F6465203DDA
:104830002575207469636B202575206661756C741D
:10484000733D3078253032580D0A00005B434D44EB
:104850005D205265626F6F74696E672E2E2E0D0A91
:10486000000000005B434D445D20556E6B6E6F771A
:104870006E3A203078253032580D0A000D0A5B5709
:1048800044545D205741544348444F4720455850B5
:1048900049524544202D2073797374656D207265EB
:1048A000736574210D0A000057445400546D722042
:1048B0005376630007000000000FC93F000F494016
:1048C00000CB9640000FC9400053FB4000CB16417F
:1048D00000ED2F41000F49410031624100537B41FF
:1048E000003A8A4100CB9641005CA34100EDAF4104
:1048F000007EBC41000FC94100A0D5410031E2411A
:1049000000C2EE410053FB4100F20342003A0A426A
:104910000083104200CB164200141D42005C23426B
:1049200000A5294200ED2F4200363642007E3C426F
:1049300000C74242000F4942A2000000F9000000F7
:10494000830000006E0000004E00000044000000E4
:104950001500000029000000FC00000027000000F6
:1049600057000000D1000000F500000034000000F6
:10497000DD000000C0000000DB000000620000005D
:1049800095000000990000003C000000430000007A
:104990009000000041000000FE00000051000000F7
:1049A00063000000AB000000DE000000BB00000060
:1049B000C500000061000000B700000024000000F6
:1049C0006E0000003A000000420000004D000000B0
:1049D000D2000000E00000000600000049000000D6
:1049E0002E000000EA00000009000000D1000000D5
:1049F000920000001C000000FE0000001D000000EE
:104A0000EB0000001C000000B100000029000000C5
:104A1000A70000003E000000E80000008200000047
:104A200035000000F50000002E000000BB00000073
:104A30004400000084000000E90000009C00000029
:104A40007000000026000000B40000005F000000BD
:104A50007E000000410000003900000091000000CD
:104A6000D600000039000000830000005300000061
:104A700039000000F40000009C00000084000000E9
:104A80005F0000008B000000BD000000F900000086
:104A9000280000003B0000001F000000F80000009C
:104AA00097000000FF000000DE000000050000008D
:104AB000980000000F000000EF0000002F00000031
:104AC000110000008B0000005A0000000A000000E6
:104AD0006D0000001F0000006D00000036000000A7
:104AE0007E000000CF00000027000000CB00000087
:104AF00009000000B70000004F0000004600000061
:104B00003F000000660000009E0000005F00000003
:104B1000EA0000002D0000007500000027000000E2
:104B2000BA000000C7000000EB000000E500000034
:104B3000F10000007B0000003D00000007000000C5
:104B400039000000F70000008A0000005200000059
:104B500092000000EA0000006B000000FB00000073
:104B60005F000000B10000001F0000008D00000089
:104B70005D00000008000000560000000300000077
:104B80003000000046000000FC0000007B00000038
:104B90006B000000AB000000F0000000CF00000040
:104BA000BC000000200000009A000000F40000009B
:104BB000360000001D000000A9000000E300000016
:104BC00091000000610000005E000000E6000000AF
:104BD0001B000000080000006500000099000000B4
:104BE000850000005F00000014000000A00000002D
:104BF00068000000400000008D000000FF00000081
:104C0000D8000000800000004D000000730000008C
:104C10002700000031000000060000000600000030
:104C20001500000056000000CA00000073000000DC
:104C3000A8000000C900000060000000E2000000C1
:104C40007B000000C00000008C0000006B00000032
:104C50000000C93F0000F0390000DA370000A2333D
:104C60000000842E0000502B0000C2270000D0223C
:104C70000000C41F0000C61B000044170400000011
:104C80000700000009000000232D302B2000686C75
:104C90004C0065666745464700303132333435365F
:104CA0003738394142434445460030313233343598
:104CB000363738396162636465660000F8B500BF55
:104CC000F8BC08BC9E467047F8B500BFF8BC08BCED
:044CD0009E46704745
:104CD400AAAAAAAA080000200000000048A20020F6
:104CE400B0A2002018A30020000000000000000073
:104CF40000000000000000000000000000000000B0
:104D0400000000000000000000000000000000009F
:104D1400000000000000000000000000000000008F
:044D2400000000008B
:0400000300000501F3
:00000001FF
